:1000000009C016C015C014C013C012C011C010C062
:100010000FC00EC011241FBECFE9CDBF10E0A0E677
:10002000B0E001C01D92A236B107E1F7DAD09FC15E
:10003000E7CF0F931F93CF93DF9320E030E0E9EAFF
:10004000F1E0E61BF70BC82FDD27C7FDD09508E0D0
:1000500010E01EC0C398C901BE0150D1B80160D1E3
:10006000709561957F4F6D597F4F80E090E002C0A1
:100070000000019668177907DCF7C39A80E090E0EA
:1000800002C00000019668177907DCF72F5F3F4F29
:100090002E173F07FCF2DF91CF911F910F9108952A
:1000A00081E060E070E0C5DFC49A80E490E02091D8
:1000B000600026BFAFE3B8E31197F1F700C000007E
:1000C00020916000309161002931310509F4C49A12
:1000D000019769F781E066E970E0ABDF109261009B
:1000E000109260000BC0EFE1FCE13197F1F700C026
:1000F0000000019690936100809360008091600001
:10010000909161008A30910574F38DEF86BFC49899
:100110008FED9EE20197F1F700C00000C49A2FEF27
:1001200036E741E0215030404040E1F700C0000098
:10013000C4988FEB9DE50197F1F700C000008FEFA9
:100140006EE17BEF76DF10926100109260000EC0CE
:100150002FEF30EE40E0215030404040E1F700C04A
:100160000000019690936100809360008091600090
:1001700090916100853091055CF380E490E02091DE
:10018000600026BFAFE3B8E31197F1F700C00000AD
:1001900020916000309161002931310509F4C49A41
:1001A000019769F781E066E970E043DF1092610032
:1001B000109260000EC02FEF30EE40E02150304032
:1001C0004040E1F700C000000196909361008093E9
:1001D00060008091600090916100853091055CF332
:1001E000089587B3886187BBC498B89A8FB589682A
:1001F0008FBD84E686BF86B1836886B987B1816288
:1002000087B981E060E070E014DF40E0379A369A09
:100210003699FECF369A01C037983699FDCF85B111
:10022000242F30E0841738F485B1281B310922309F
:10023000310544F4EBCF85B190E0821B930B823003
:10024000910524F310926100109260000EC02FEF10
:1002500030EE40E0215030404040E1F700C0000067
:10026000019690936100809360008091600090916E
:100270006100823391055CF383B7826083BF10DF36
:1002800083B78D7F83BF10926100109260000EC013
:100290002FEF30EE40E0215030404040E1F700C009
:1002A000000001969093610080936000809160004F
:1002B00090916100823391055CF3C49AC4988FEBEE
:1002C0009DE50197F1F700C00000C49A8FEB9DE512
:1002D0000197F1F700C00000C4988FEB9DE50197EE
:1002E000F1F700C00000379A369A3699FECF369A59
:1002F00001C037983699FDCF45B188CF55270024E6
:1003000080FF02C0060E571F660F771F611571052B
:1003100021F096958795009799F7952F802D089550
:1003200097FB092E07260AD077FD04D00CD006D003
:1003300000201AF4709561957F4F0895F6F7909517
:1003400081959F4F0895AA1BBB1B51E107C0AA1FAF
:10035000BB1FA617B70710F0A61BB70B881F991F66
:100360005A95A9F780959095BC01CD010895F89410
:02037000FFCFBD
:00000001FF
