:1000000009C016C015C014C013C012C011C010C062
:100010000FC00EC011241FBECFE9CDBF10E0A0E677
:10002000B0E001C01D92A236B107E1F77FD02FC129
:10003000E7CF0F931F93CF93DF9320E030E0E9EAFF
:10004000F1E0E61BF70BC82FDD27C7FDD09508E0D0
:1000500010E01EC0C398C901BE01E0D0B801F0D0C5
:10006000709561957F4F6D597F4F80E090E002C0A1
:100070000000019668177907DCF7C39A80E090E0EA
:1000800002C00000019668177907DCF72F5F3F4F29
:100090002E173F07FCF2DF91CF911F910F9108952A
:1000A00081E060E070E0C5DFC49A8FEF90E010C09F
:1000B00086BFAFEBB2E11197F1F700C000008931C4
:1000C000910509F4C49A80916000909161000497B1
:1000D0009093610080936000809160009091610036
:1000E000181619062CF381E066E970E0A2DF8AEFAA
:1000F00086BFC498EFEDFEE23197F1F700C0000033
:10010000C49A8FEF96E7A1E081509040A040E1F7BC
:1001100000C00000C498AFEBBDE51197F1F700C037
:1001200000008FEF6EE17BEF84DF0895CF93DF93C4
:1001300087B3886187BBC498B89A8FB5896C8FBD27
:1001400084E686BF83B7826083BF86B1836886B941
:1001500087B1816287B981E060E070E06ADF40E0EA
:10016000CFEFD0E0D0936100C09360000CC086BF99
:10017000EFE7FBEB3197F1F700C000000497909395
:10018000610080936000809160009091610018167A
:1001900019066CF3379A369A3699FECF369A01C013
:1001A00037983699FDCF85B1242F30E0841738F485
:1001B00085B1281B31092630310544F428C085B1AA
:1001C00090E0821B930B863091050CF169DFC49A95
:1001D000C4988FEB9DE50197F1F700C00000C49A29
:1001E000EFEBFDE53197F1F700C00000C4988FEB0D
:1001F0009DE50197F1F700C00000379A369A3699CD
:10020000FECF369A01C037983699FDCF45B1EFEB56
:10021000FDE53197F1F700C00000A4CF5527002479
:1002200080FF02C0060E571F660F771F611571050C
:1002300021F096958795009799F7952F802D089531
:1002400097FB092E07260AD077FD04D00CD006D0E4
:1002500000201AF4709561957F4F0895F6F79095F8
:1002600081959F4F0895AA1BBB1B51E107C0AA1F90
:10027000BB1FA617B70710F0A61BB70B881F991F47
:100280005A95A9F780959095BC01CD010895F894F1
:02029000FFCF9E
:00000001FF
